S00E00004C61625F31322E7372656345
S11300000C9434000C9446000C9446000C94460066
S11300100C9446000C9446000C9446000C94460044
S11300200C9446000C9446000C9446000C94460034
S11300300C9446000C9446000C9446000C94460024
S11300400C9485000C9446000C9446000C944600D5
S11300500C9446000C9446000C9446000C94460004
S11300600C9446000C94460011241FBECFEFD8E038
S1130070DEBFCDBF21E0A0E0B1E001C01D92A930F8
S1130080B207E1F70E9476000C940A010C94000078
S1130090F894259A87B1826287B98AB188688AB947
S11300A02C9A88B1816188B98BB184648BB97894B6
S11300B0F8941C9B02C02D9A01C02D98309B02C05D
S11300C0419A01C04198349B02C0459A01C04598A9
S11300D04A9B02C05B9A01C05B984E9B02C05F9A28
S11300E001C05F987894E4CF089508950E94CF00EA
S11300F00E9475000E944800C0E0D0E00E94740095
S11301002097E1F30E940000F9CF1F920F920FB6DF
S11301100F9211242F933F938F939F93AF93BF9389
S11301208091010190910201A0910301B091040119
S11301303091000123E0230F2D3720F40196A11DF7
S1130140B11D05C026E8230F0296A11DB11D209301
S113015000018093010190930201A0930301B093E5
S113016004018091050190910601A0910701B091CD
S113017008010196A11DB11D80930501909306010C
S1130180A0930701B0930801BF91AF919F918F9104
S11301903F912F910F900FBE0F901F901895789458
S11301A084B5826084BD84B5816084BD85B5826078
S11301B085BD85B5816085BDEEE6F0E08081816016
S11301C08083E1E8F0E01082808182608083808116
S11301D081608083E0E8F0E0808181608083E1EBEE
S11301E0F0E0808184608083E0EBF0E080818160D6
S11301F08083EAE7F0E0808184608083808182608C
S11302008083808181608083808180688083109274
S10B0210C1000895F894FFCF2A
S9030000FC
